{
  "contractName": "Token",
  "abi": [
    {
      "inputs": [],
      "stateMutability": "nonpayable",
      "type": "constructor"
    },
    {
      "anonymous": false,
      "inputs": [
        {
          "indexed": true,
          "internalType": "address",
          "name": "owner",
          "type": "address"
        },
        {
          "indexed": true,
          "internalType": "address",
          "name": "spender",
          "type": "address"
        },
        {
          "indexed": false,
          "internalType": "uint256",
          "name": "value",
          "type": "uint256"
        }
      ],
      "name": "Approval",
      "type": "event"
    },
    {
      "anonymous": false,
      "inputs": [
        {
          "indexed": true,
          "internalType": "address",
          "name": "from",
          "type": "address"
        },
        {
          "indexed": true,
          "internalType": "address",
          "name": "to",
          "type": "address"
        },
        {
          "indexed": false,
          "internalType": "uint256",
          "name": "value",
          "type": "uint256"
        }
      ],
      "name": "Transfer",
      "type": "event"
    },
    {
      "inputs": [],
      "name": "master",
      "outputs": [
        {
          "internalType": "address",
          "name": "",
          "type": "address"
        }
      ],
      "stateMutability": "view",
      "type": "function"
    },
    {
      "inputs": [],
      "name": "name",
      "outputs": [
        {
          "internalType": "string",
          "name": "",
          "type": "string"
        }
      ],
      "stateMutability": "view",
      "type": "function"
    },
    {
      "inputs": [],
      "name": "symbol",
      "outputs": [
        {
          "internalType": "string",
          "name": "",
          "type": "string"
        }
      ],
      "stateMutability": "view",
      "type": "function"
    },
    {
      "inputs": [],
      "name": "decimals",
      "outputs": [
        {
          "internalType": "uint8",
          "name": "",
          "type": "uint8"
        }
      ],
      "stateMutability": "view",
      "type": "function"
    },
    {
      "inputs": [],
      "name": "totalSupply",
      "outputs": [
        {
          "internalType": "uint256",
          "name": "",
          "type": "uint256"
        }
      ],
      "stateMutability": "view",
      "type": "function"
    },
    {
      "inputs": [
        {
          "internalType": "address",
          "name": "_account",
          "type": "address"
        }
      ],
      "name": "balanceOf",
      "outputs": [
        {
          "internalType": "uint256",
          "name": "",
          "type": "uint256"
        }
      ],
      "stateMutability": "view",
      "type": "function"
    },
    {
      "inputs": [
        {
          "internalType": "address",
          "name": "_recipient",
          "type": "address"
        },
        {
          "internalType": "uint256",
          "name": "_amount",
          "type": "uint256"
        }
      ],
      "name": "transfer",
      "outputs": [
        {
          "internalType": "bool",
          "name": "",
          "type": "bool"
        }
      ],
      "stateMutability": "nonpayable",
      "type": "function"
    },
    {
      "inputs": [
        {
          "internalType": "address",
          "name": "_sender",
          "type": "address"
        },
        {
          "internalType": "address",
          "name": "_recipient",
          "type": "address"
        },
        {
          "internalType": "uint256",
          "name": "_amount",
          "type": "uint256"
        }
      ],
      "name": "transferFrom",
      "outputs": [
        {
          "internalType": "bool",
          "name": "",
          "type": "bool"
        }
      ],
      "stateMutability": "nonpayable",
      "type": "function"
    },
    {
      "inputs": [
        {
          "internalType": "address",
          "name": "_owner",
          "type": "address"
        },
        {
          "internalType": "address",
          "name": "_spender",
          "type": "address"
        }
      ],
      "name": "allowance",
      "outputs": [
        {
          "internalType": "uint256",
          "name": "",
          "type": "uint256"
        }
      ],
      "stateMutability": "view",
      "type": "function"
    },
    {
      "inputs": [
        {
          "internalType": "address",
          "name": "_spender",
          "type": "address"
        },
        {
          "internalType": "uint256",
          "name": "_amount",
          "type": "uint256"
        }
      ],
      "name": "approve",
      "outputs": [
        {
          "internalType": "bool",
          "name": "",
          "type": "bool"
        }
      ],
      "stateMutability": "nonpayable",
      "type": "function"
    },
    {
      "inputs": [
        {
          "internalType": "uint256",
          "name": "_amount",
          "type": "uint256"
        }
      ],
      "name": "mint",
      "outputs": [],
      "stateMutability": "nonpayable",
      "type": "function"
    },
    {
      "inputs": [
        {
          "internalType": "uint256",
          "name": "_amount",
          "type": "uint256"
        },
        {
          "internalType": "address",
          "name": "_address",
          "type": "address"
        }
      ],
      "name": "mintByMaster",
      "outputs": [],
      "stateMutability": "nonpayable",
      "type": "function"
    },
    {
      "inputs": [
        {
          "internalType": "uint256",
          "name": "_amount",
          "type": "uint256"
        }
      ],
      "name": "burn",
      "outputs": [],
      "stateMutability": "nonpayable",
      "type": "function"
    }
  ],
  "bytecode": "0x60c060405260056080908152642a37b5b2b760d91b60a0525f906100239082610142565b506040805180820190915260038152622a25a760e91b602082015260019061004b9082610142565b506002805460ff19166012179055348015610064575f5ffd5b5060028054610100600160a81b031916336101008102919091179091556e01bbbbf868fa2cfecc335a0000000060058190555f91825260036020526040909120556101fc565b634e487b7160e01b5f52604160045260245ffd5b600181811c908216806100d257607f821691505b6020821081036100f057634e487b7160e01b5f52602260045260245ffd5b50919050565b601f82111561013d57805f5260205f20601f840160051c8101602085101561011b5750805b601f840160051c820191505b8181101561013a575f8155600101610127565b50505b505050565b81516001600160401b0381111561015b5761015b6100aa565b61016f8161016984546100be565b846100f6565b6020601f8211600181146101a1575f831561018a5750848201515b5f19600385901b1c1916600184901b17845561013a565b5f84815260208120601f198516915b828110156101d057878501518255602094850194600190920191016101b0565b50848210156101ed57868401515f19600387901b60f8161c191681555b50505050600190811b01905550565b6108f1806102095f395ff3fe608060405234801561000f575f5ffd5b50600436106100cb575f3560e01c806370a0823111610088578063a0712d6811610063578063a0712d68146101a2578063a9059cbb146101b5578063dd62ed3e146101c8578063ee97f7f314610200575f5ffd5b806370a082311461015f57806395d89b41146101875780639de555381461018f575f5ffd5b806306fdde03146100cf578063095ea7b3146100ed57806318160ddd1461011057806323b872dd14610122578063313ce5671461013557806342966c681461014a575b5f5ffd5b6100d7610230565b6040516100e491906106ee565b60405180910390f35b6101006100fb36600461073e565b6102bf565b60405190151581526020016100e4565b6005545b6040519081526020016100e4565b610100610130366004610766565b6102dc565b60025460405160ff90911681526020016100e4565b61015d6101583660046107a0565b61034e565b005b61011461016d3660046107b7565b6001600160a01b03165f9081526003602052604090205490565b6100d76103f4565b61015d61019d3660046107d7565b610403565b61015d6101b03660046107a0565b6104eb565b6101006101c336600461073e565b61058f565b6101146101d6366004610801565b6001600160a01b039182165f90815260046020908152604080832093909416825291909152205490565b6002546102189061010090046001600160a01b031681565b6040516001600160a01b0390911681526020016100e4565b60605f805461023e90610829565b80601f016020809104026020016040519081016040528092919081815260200182805461026a90610829565b80156102b55780601f1061028c576101008083540402835291602001916102b5565b820191905f5260205f20905b81548152906001019060200180831161029857829003601f168201915b5050505050905090565b5f6102d26102cb6105a2565b84846105fb565b5060015b92915050565b5f610339846102e96105a2565b6001600160a01b0387165f908152600460205260408120869161030a6105a2565b6001600160a01b03166001600160a01b031681526020019081526020015f20546103349190610875565b6105fb565b61034484848461065c565b5060019392505050565b8060035f61035a6105a2565b6001600160a01b03166001600160a01b031681526020019081526020015f20546103849190610875565b60035f61038f6105a2565b6001600160a01b0316815260208101919091526040015f20556005546103b6908290610875565b6005555f6103c26105a2565b6001600160a01b03165f51602061089c5f395f51905f52836040516103e991815260200190565b60405180910390a350565b60606001805461023e90610829565b60025461010090046001600160a01b031661041c6105a2565b6001600160a01b03161461046e5760405162461bcd60e51b81526020600482015260156024820152742a37b5b2b71d1024a72b20a624a22fa6a0a9aa22a960591b604482015260640160405180910390fd5b6001600160a01b0381165f90815260036020526040902054610491908390610888565b6001600160a01b0382165f908152600360205260409020556005546104b7908390610888565b6005556040518281526001600160a01b038216905f905f51602061089c5f395f51905f529060200160405180910390a35050565b8060035f6104f76105a2565b6001600160a01b03166001600160a01b031681526020019081526020015f20546105219190610888565b60035f61052c6105a2565b6001600160a01b0316815260208101919091526040015f2055600554610553908290610888565b60055561055e6105a2565b6001600160a01b03165f6001600160a01b03165f51602061089c5f395f51905f52836040516103e991815260200190565b5f6102d261059b6105a2565b848461065c565b5f3033036105f5575f5f368080601f0160208091040260200160405190810160405280939291908181526020018383808284375f920191909152505050503601516001600160a01b031691506105f89050565b50335b90565b6001600160a01b038381165f8181526004602090815260408083209487168084529482529182902085905590518481527f8c5be1e5ebec7d5bd14f71427d1e84f3dd0314c0f7b2291e5b200ac8c7c3b92591015b60405180910390a3505050565b6001600160a01b0383165f9081526003602052604090205461067f908290610875565b6001600160a01b038085165f9081526003602052604080822093909355908416815220546106ae908290610888565b6001600160a01b038084165f8181526003602052604090819020939093559151908516905f51602061089c5f395f51905f529061064f9085815260200190565b602081525f82518060208401528060208501604085015e5f604082850101526040601f19601f83011684010191505092915050565b80356001600160a01b0381168114610739575f5ffd5b919050565b5f5f6040838503121561074f575f5ffd5b61075883610723565b946020939093013593505050565b5f5f5f60608486031215610778575f5ffd5b61078184610723565b925061078f60208501610723565b929592945050506040919091013590565b5f602082840312156107b0575f5ffd5b5035919050565b5f602082840312156107c7575f5ffd5b6107d082610723565b9392505050565b5f5f604083850312156107e8575f5ffd5b823591506107f860208401610723565b90509250929050565b5f5f60408385031215610812575f5ffd5b61081b83610723565b91506107f860208401610723565b600181811c9082168061083d57607f821691505b60208210810361085b57634e487b7160e01b5f52602260045260245ffd5b50919050565b634e487b7160e01b5f52601160045260245ffd5b818103818111156102d6576102d6610861565b808201808211156102d6576102d661086156feddf252ad1be2c89b69c2b068fc378daa952ba7f163c4a11628f55a4df523b3efa26469706673582212205ce560be4229c84653af2ceb09f77673246080cab22c65661424a36c2687f38f64736f6c634300081c0033",
  "immutableReferences": {},
  "source": "// SPDX-License-Identifier: BCOM\n\npragma solidity ^0.8.9;\n\ncontract Token {\n\n    string private _name = \"Token\";\n    string private _symbol = \"TKN\";\n    uint8 private _decimals = 18;\n\n    address public master;\n\n    mapping (address => uint256) private _balances;\n    mapping (address => mapping (address => uint256)) private _allowances;\n\n    uint256 private _totalSupply;\n\n    event Transfer(\n        address indexed from,\n        address indexed to,\n        uint256 value\n    );\n\n    event Approval(\n        address indexed owner,\n        address indexed spender,\n        uint256 value\n    );\n\n    constructor() {\n        master = msg.sender;\n        _totalSupply = 9000000000000000000000000000000000;\n        _balances[msg.sender] = _totalSupply;\n    }\n\n    function name()\n        external\n        view\n        returns (string memory)\n    {\n        return _name;\n    }\n\n    function symbol()\n        external\n        view\n        returns (string memory)\n    {\n        return _symbol;\n    }\n\n    function decimals()\n        external\n        view\n        returns (uint8)\n    {\n        return _decimals;\n    }\n\n    function totalSupply()\n        external\n        view\n        returns (uint256)\n    {\n        return _totalSupply;\n    }\n\n    function balanceOf(\n        address _account\n    )\n        external\n        view\n        returns (uint256)\n    {\n        return _balances[_account];\n    }\n\n    function transfer(\n        address _recipient,\n        uint256 _amount\n    )\n        external\n        returns (bool)\n    {\n        _transfer(\n            _msgSender(),\n            _recipient,\n            _amount\n        );\n\n        return true;\n    }\n\n    function _transfer(\n        address _sender,\n        address _recipient,\n        uint256 _amount\n    )\n        internal\n    {\n        _balances[_sender] =\n        _balances[_sender] - _amount;\n\n        _balances[_recipient] =\n        _balances[_recipient] + _amount;\n\n        emit Transfer(\n            _sender,\n            _recipient,\n            _amount\n        );\n    }\n\n    function transferFrom(\n        address _sender,\n        address _recipient,\n        uint256 _amount\n    )\n        external\n        returns (bool)\n    {\n        _approve(\n            _sender,\n            _msgSender(),\n            _allowances[_sender][_msgSender()] - _amount\n        );\n\n        _transfer(\n            _sender,\n            _recipient,\n            _amount\n        );\n\n        return true;\n    }\n\n    function allowance(\n        address _owner,\n        address _spender\n    )\n        external\n        view\n        returns (uint256)\n    {\n        return _allowances[_owner][_spender];\n    }\n\n    function approve(\n        address _spender,\n        uint256 _amount\n    )\n        external\n        returns (bool)\n    {\n        _approve(\n            _msgSender(),\n            _spender,\n            _amount\n        );\n\n        return true;\n    }\n\n    function _approve(\n        address _owner,\n        address _spender,\n        uint256 _amount\n    )\n        internal\n    {\n        _allowances[_owner][_spender] = _amount;\n\n        emit Approval(\n            _owner,\n            _spender,\n            _amount\n        );\n    }\n\n    function mint(\n        uint256 _amount\n    )\n        external\n    {\n        _balances[_msgSender()] =\n        _balances[_msgSender()] + _amount;\n\n        _totalSupply =\n        _totalSupply + _amount;\n\n        emit Transfer(\n            address(0x0),\n            _msgSender(),\n            _amount\n        );\n    }\n\n    function mintByMaster(\n        uint256 _amount,\n        address _address\n    )\n        external\n    {\n        require(\n            _msgSender() == master,\n            'Token: INVALID_MASTER'\n        );\n\n        _balances[_address] =\n        _balances[_address] + _amount;\n\n        _totalSupply =\n        _totalSupply + _amount;\n\n        emit Transfer(\n            address(0x0),\n            _address,\n            _amount\n        );\n    }\n\n    function burn(\n        uint256 _amount\n    )\n        external\n    {\n        _balances[_msgSender()] =\n        _balances[_msgSender()] - _amount;\n\n        _totalSupply =\n        _totalSupply - _amount;\n\n        emit Transfer(\n            _msgSender(),\n            address(0x0),\n            _amount\n        );\n    }\n\n    function _msgSender()\n        internal\n        view\n        returns(address sender)\n    {\n        if (msg.sender == address(this)) {\n            bytes memory array = msg.data;\n            uint256 index = msg.data.length;\n            assembly {\n                // Load the 32 bytes word from memory with the address on the lower 20 bytes, and mask those.\n                sender := and(mload(add(array, index)), 0xffffffffffffffffffffffffffffffffffffffff)\n            }\n        } else {\n            sender = msg.sender;\n        }\n        return sender;\n    }\n}\n",
  "sourcePath": "/workspaces/bitcoincom-solidity-swap/contracts/Token.sol",
  "compiler": {
    "name": "solc",
    "version": "0.8.28+commit.7893614a.Emscripten.clang"
  },
  "schemaVersion": "3.4.3",
  "updatedAt": "2024-10-25T10:01:01.398Z",
  "devdoc": {
    "kind": "dev",
    "methods": {},
    "version": 1
  },
  "userdoc": {
    "kind": "user",
    "methods": {},
    "version": 1
  }
}